{
  "contractName": "SimpleToken",
  "abi": [
    {
      "inputs": [],
      "stateMutability": "nonpayable",
      "type": "constructor"
    },
    {
      "anonymous": false,
      "inputs": [
        {
          "indexed": true,
          "internalType": "address",
          "name": "owner",
          "type": "address"
        },
        {
          "indexed": true,
          "internalType": "address",
          "name": "spender",
          "type": "address"
        },
        {
          "indexed": false,
          "internalType": "uint256",
          "name": "value",
          "type": "uint256"
        }
      ],
      "name": "Approval",
      "type": "event"
    },
    {
      "anonymous": false,
      "inputs": [
        {
          "indexed": true,
          "internalType": "address",
          "name": "from",
          "type": "address"
        },
        {
          "indexed": true,
          "internalType": "address",
          "name": "to",
          "type": "address"
        },
        {
          "indexed": false,
          "internalType": "uint256",
          "name": "value",
          "type": "uint256"
        }
      ],
      "name": "Transfer",
      "type": "event"
    },
    {
      "inputs": [],
      "name": "INITIAL_SUPPLY",
      "outputs": [
        {
          "internalType": "uint256",
          "name": "",
          "type": "uint256"
        }
      ],
      "stateMutability": "view",
      "type": "function",
      "constant": true
    },
    {
      "inputs": [
        {
          "internalType": "address",
          "name": "owner",
          "type": "address"
        },
        {
          "internalType": "address",
          "name": "spender",
          "type": "address"
        }
      ],
      "name": "allowance",
      "outputs": [
        {
          "internalType": "uint256",
          "name": "",
          "type": "uint256"
        }
      ],
      "stateMutability": "view",
      "type": "function",
      "constant": true
    },
    {
      "inputs": [
        {
          "internalType": "address",
          "name": "spender",
          "type": "address"
        },
        {
          "internalType": "uint256",
          "name": "value",
          "type": "uint256"
        }
      ],
      "name": "approve",
      "outputs": [
        {
          "internalType": "bool",
          "name": "",
          "type": "bool"
        }
      ],
      "stateMutability": "nonpayable",
      "type": "function"
    },
    {
      "inputs": [
        {
          "internalType": "address",
          "name": "account",
          "type": "address"
        }
      ],
      "name": "balanceOf",
      "outputs": [
        {
          "internalType": "uint256",
          "name": "",
          "type": "uint256"
        }
      ],
      "stateMutability": "view",
      "type": "function",
      "constant": true
    },
    {
      "inputs": [],
      "name": "decimals",
      "outputs": [
        {
          "internalType": "uint8",
          "name": "",
          "type": "uint8"
        }
      ],
      "stateMutability": "view",
      "type": "function",
      "constant": true
    },
    {
      "inputs": [
        {
          "internalType": "address",
          "name": "spender",
          "type": "address"
        },
        {
          "internalType": "uint256",
          "name": "subtractedValue",
          "type": "uint256"
        }
      ],
      "name": "decreaseAllowance",
      "outputs": [
        {
          "internalType": "bool",
          "name": "",
          "type": "bool"
        }
      ],
      "stateMutability": "nonpayable",
      "type": "function"
    },
    {
      "inputs": [
        {
          "internalType": "address",
          "name": "spender",
          "type": "address"
        },
        {
          "internalType": "uint256",
          "name": "addedValue",
          "type": "uint256"
        }
      ],
      "name": "increaseAllowance",
      "outputs": [
        {
          "internalType": "bool",
          "name": "",
          "type": "bool"
        }
      ],
      "stateMutability": "nonpayable",
      "type": "function"
    },
    {
      "inputs": [],
      "name": "name",
      "outputs": [
        {
          "internalType": "string",
          "name": "",
          "type": "string"
        }
      ],
      "stateMutability": "view",
      "type": "function",
      "constant": true
    },
    {
      "inputs": [],
      "name": "symbol",
      "outputs": [
        {
          "internalType": "string",
          "name": "",
          "type": "string"
        }
      ],
      "stateMutability": "view",
      "type": "function",
      "constant": true
    },
    {
      "inputs": [],
      "name": "totalSupply",
      "outputs": [
        {
          "internalType": "uint256",
          "name": "",
          "type": "uint256"
        }
      ],
      "stateMutability": "view",
      "type": "function",
      "constant": true
    },
    {
      "inputs": [
        {
          "internalType": "address",
          "name": "recipient",
          "type": "address"
        },
        {
          "internalType": "uint256",
          "name": "amount",
          "type": "uint256"
        }
      ],
      "name": "transfer",
      "outputs": [
        {
          "internalType": "bool",
          "name": "",
          "type": "bool"
        }
      ],
      "stateMutability": "nonpayable",
      "type": "function"
    },
    {
      "inputs": [
        {
          "internalType": "address",
          "name": "sender",
          "type": "address"
        },
        {
          "internalType": "address",
          "name": "recipient",
          "type": "address"
        },
        {
          "internalType": "uint256",
          "name": "amount",
          "type": "uint256"
        }
      ],
      "name": "transferFrom",
      "outputs": [
        {
          "internalType": "bool",
          "name": "",
          "type": "bool"
        }
      ],
      "stateMutability": "nonpayable",
      "type": "function"
    }
  ],
  "bytecode": "0x60806040523480156200001157600080fd5b50601260ff16600a6200002591906200053a565b6127106200003491906200058b565b600281905550601260ff16600a6200004d91906200053a565b6127106200005c91906200058b565b6000803373ffffffffffffffffffffffffffffffffffffffff1673ffffffffffffffffffffffffffffffffffffffff16815260200190815260200160002081905550620000d133601260ff16600a620000b691906200053a565b612710620000c591906200058b565b620000d860201b60201c565b50620007f3565b6000620000ed338484620000f760201b60201c565b6001905092915050565b600073ffffffffffffffffffffffffffffffffffffffff168373ffffffffffffffffffffffffffffffffffffffff1614156200016a576040517f08c379a0000000000000000000000000000000000000000000000000000000008152600401620001619062000673565b60405180910390fd5b600073ffffffffffffffffffffffffffffffffffffffff168273ffffffffffffffffffffffffffffffffffffffff161415620001dd576040517f08c379a0000000000000000000000000000000000000000000000000000000008152600401620001d4906200070b565b60405180910390fd5b62000235816000808673ffffffffffffffffffffffffffffffffffffffff1673ffffffffffffffffffffffffffffffffffffffff168152602001908152602001600020546200037d60201b620006391790919060201c565b6000808573ffffffffffffffffffffffffffffffffffffffff1673ffffffffffffffffffffffffffffffffffffffff16815260200190815260200160002081905550620002cf816000808573ffffffffffffffffffffffffffffffffffffffff1673ffffffffffffffffffffffffffffffffffffffff168152602001908152602001600020546200039560201b6200064f1790919060201c565b6000808473ffffffffffffffffffffffffffffffffffffffff1673ffffffffffffffffffffffffffffffffffffffff168152602001908152602001600020819055508173ffffffffffffffffffffffffffffffffffffffff168373ffffffffffffffffffffffffffffffffffffffff167fddf252ad1be2c89b69c2b068fc378daa952ba7f163c4a11628f55a4df523b3ef836040516200037091906200073e565b60405180910390a3505050565b600081836200038d91906200075b565b905092915050565b60008183620003a5919062000796565b905092915050565b7f4e487b7100000000000000000000000000000000000000000000000000000000600052601160045260246000fd5b60008160011c9050919050565b6000808291508390505b60018511156200043b57808604811115620004135762000412620003ad565b5b6001851615620004235780820291505b80810290506200043385620003dc565b9450620003f3565b94509492505050565b60008262000456576001905062000529565b8162000466576000905062000529565b81600181146200047f57600281146200048a57620004c0565b600191505062000529565b60ff8411156200049f576200049e620003ad565b5b8360020a915084821115620004b957620004b8620003ad565b5b5062000529565b5060208310610133831016604e8410600b8410161715620004fa5782820a905083811115620004f457620004f3620003ad565b5b62000529565b620005098484846001620003e9565b92509050818404811115620005235762000522620003ad565b5b81810290505b9392505050565b6000819050919050565b6000620005478262000530565b9150620005548362000530565b9250620005837fffffffffffffffffffffffffffffffffffffffffffffffffffffffffffffffff848462000444565b905092915050565b6000620005988262000530565b9150620005a58362000530565b9250817fffffffffffffffffffffffffffffffffffffffffffffffffffffffffffffffff0483118215151615620005e157620005e0620003ad565b5b828202905092915050565b600082825260208201905092915050565b7f45524332303a207472616e736665722066726f6d20746865207a65726f20616460008201527f6472657373000000000000000000000000000000000000000000000000000000602082015250565b60006200065b602583620005ec565b91506200066882620005fd565b604082019050919050565b600060208201905081810360008301526200068e816200064c565b9050919050565b7f45524332303a207472616e7366657220746f20746865207a65726f206164647260008201527f6573730000000000000000000000000000000000000000000000000000000000602082015250565b6000620006f3602383620005ec565b9150620007008262000695565b604082019050919050565b600060208201905081810360008301526200072681620006e4565b9050919050565b620007388162000530565b82525050565b60006020820190506200075560008301846200072d565b92915050565b6000620007688262000530565b9150620007758362000530565b9250828210156200078b576200078a620003ad565b5b828203905092915050565b6000620007a38262000530565b9150620007b08362000530565b9250827fffffffffffffffffffffffffffffffffffffffffffffffffffffffffffffffff03821115620007e857620007e7620003ad565b5b828201905092915050565b61129a80620008036000396000f3fe608060405234801561001057600080fd5b50600436106100b45760003560e01c80633950935111610071578063395093511461019157806370a08231146101c157806395d89b41146101f1578063a457c2d71461020f578063a9059cbb1461023f578063dd62ed3e1461026f576100b4565b806306fdde03146100b9578063095ea7b3146100d757806318160ddd1461010757806323b872dd146101255780632ff2e9dc14610155578063313ce56714610173575b600080fd5b6100c161029f565b6040516100ce9190610b39565b60405180910390f35b6100f160048036038101906100ec9190610bf4565b6102d8565b6040516100fe9190610c4f565b60405180910390f35b61010f6102ef565b60405161011c9190610c79565b60405180910390f35b61013f600480360381019061013a9190610c94565b6102f9565b60405161014c9190610c4f565b60405180910390f35b61015d6103aa565b60405161016a9190610c79565b60405180910390f35b61017b6103cb565b6040516101889190610d03565b60405180910390f35b6101ab60048036038101906101a69190610bf4565b6103d0565b6040516101b89190610c4f565b60405180910390f35b6101db60048036038101906101d69190610d1e565b610475565b6040516101e89190610c79565b60405180910390f35b6101f96104bd565b6040516102069190610b39565b60405180910390f35b61022960048036038101906102249190610bf4565b6104f6565b6040516102369190610c4f565b60405180910390f35b61025960048036038101906102549190610bf4565b61059b565b6040516102669190610c4f565b60405180910390f35b61028960048036038101906102849190610d4b565b6105b2565b6040516102969190610c79565b60405180910390f35b6040518060400160405280600b81526020017f53696d706c65546f6b656e00000000000000000000000000000000000000000081525081565b60006102e5338484610665565b6001905092915050565b6000600254905090565b6000610306848484610830565b61039f843361039a85600160008a73ffffffffffffffffffffffffffffffffffffffff1673ffffffffffffffffffffffffffffffffffffffff16815260200190815260200160002060003373ffffffffffffffffffffffffffffffffffffffff1673ffffffffffffffffffffffffffffffffffffffff1681526020019081526020016000205461063990919063ffffffff16565b610665565b600190509392505050565b601260ff16600a6103bb9190610eed565b6127106103c89190610f38565b81565b601281565b600061046b338461046685600160003373ffffffffffffffffffffffffffffffffffffffff1673ffffffffffffffffffffffffffffffffffffffff16815260200190815260200160002060008973ffffffffffffffffffffffffffffffffffffffff1673ffffffffffffffffffffffffffffffffffffffff1681526020019081526020016000205461064f90919063ffffffff16565b610665565b6001905092915050565b60008060008373ffffffffffffffffffffffffffffffffffffffff1673ffffffffffffffffffffffffffffffffffffffff168152602001908152602001600020549050919050565b6040518060400160405280600381526020017f53494d000000000000000000000000000000000000000000000000000000000081525081565b6000610591338461058c85600160003373ffffffffffffffffffffffffffffffffffffffff1673ffffffffffffffffffffffffffffffffffffffff16815260200190815260200160002060008973ffffffffffffffffffffffffffffffffffffffff1673ffffffffffffffffffffffffffffffffffffffff1681526020019081526020016000205461063990919063ffffffff16565b610665565b6001905092915050565b60006105a8338484610830565b6001905092915050565b6000600160008473ffffffffffffffffffffffffffffffffffffffff1673ffffffffffffffffffffffffffffffffffffffff16815260200190815260200160002060008373ffffffffffffffffffffffffffffffffffffffff1673ffffffffffffffffffffffffffffffffffffffff16815260200190815260200160002054905092915050565b600081836106479190610f92565b905092915050565b6000818361065d9190610fc6565b905092915050565b600073ffffffffffffffffffffffffffffffffffffffff168373ffffffffffffffffffffffffffffffffffffffff1614156106d5576040517f08c379a00000000000000000000000000000000000000000000000000000000081526004016106cc9061108e565b60405180910390fd5b600073ffffffffffffffffffffffffffffffffffffffff168273ffffffffffffffffffffffffffffffffffffffff161415610745576040517f08c379a000000000000000000000000000000000000000000000000000000000815260040161073c90611120565b60405180910390fd5b80600160008573ffffffffffffffffffffffffffffffffffffffff1673ffffffffffffffffffffffffffffffffffffffff16815260200190815260200160002060008473ffffffffffffffffffffffffffffffffffffffff1673ffffffffffffffffffffffffffffffffffffffff168152602001908152602001600020819055508173ffffffffffffffffffffffffffffffffffffffff168373ffffffffffffffffffffffffffffffffffffffff167f8c5be1e5ebec7d5bd14f71427d1e84f3dd0314c0f7b2291e5b200ac8c7c3b925836040516108239190610c79565b60405180910390a3505050565b600073ffffffffffffffffffffffffffffffffffffffff168373ffffffffffffffffffffffffffffffffffffffff1614156108a0576040517f08c379a0000000000000000000000000000000000000000000000000000000008152600401610897906111b2565b60405180910390fd5b600073ffffffffffffffffffffffffffffffffffffffff168273ffffffffffffffffffffffffffffffffffffffff161415610910576040517f08c379a000000000000000000000000000000000000000000000000000000000815260040161090790611244565b60405180910390fd5b610961816000808673ffffffffffffffffffffffffffffffffffffffff1673ffffffffffffffffffffffffffffffffffffffff1681526020019081526020016000205461063990919063ffffffff16565b6000808573ffffffffffffffffffffffffffffffffffffffff1673ffffffffffffffffffffffffffffffffffffffff168152602001908152602001600020819055506109f4816000808573ffffffffffffffffffffffffffffffffffffffff1673ffffffffffffffffffffffffffffffffffffffff1681526020019081526020016000205461064f90919063ffffffff16565b6000808473ffffffffffffffffffffffffffffffffffffffff1673ffffffffffffffffffffffffffffffffffffffff168152602001908152602001600020819055508173ffffffffffffffffffffffffffffffffffffffff168373ffffffffffffffffffffffffffffffffffffffff167fddf252ad1be2c89b69c2b068fc378daa952ba7f163c4a11628f55a4df523b3ef83604051610a939190610c79565b60405180910390a3505050565b600081519050919050565b600082825260208201905092915050565b60005b83811015610ada578082015181840152602081019050610abf565b83811115610ae9576000848401525b50505050565b6000601f19601f8301169050919050565b6000610b0b82610aa0565b610b158185610aab565b9350610b25818560208601610abc565b610b2e81610aef565b840191505092915050565b60006020820190508181036000830152610b538184610b00565b905092915050565b600080fd5b600073ffffffffffffffffffffffffffffffffffffffff82169050919050565b6000610b8b82610b60565b9050919050565b610b9b81610b80565b8114610ba657600080fd5b50565b600081359050610bb881610b92565b92915050565b6000819050919050565b610bd181610bbe565b8114610bdc57600080fd5b50565b600081359050610bee81610bc8565b92915050565b60008060408385031215610c0b57610c0a610b5b565b5b6000610c1985828601610ba9565b9250506020610c2a85828601610bdf565b9150509250929050565b60008115159050919050565b610c4981610c34565b82525050565b6000602082019050610c646000830184610c40565b92915050565b610c7381610bbe565b82525050565b6000602082019050610c8e6000830184610c6a565b92915050565b600080600060608486031215610cad57610cac610b5b565b5b6000610cbb86828701610ba9565b9350506020610ccc86828701610ba9565b9250506040610cdd86828701610bdf565b9150509250925092565b600060ff82169050919050565b610cfd81610ce7565b82525050565b6000602082019050610d186000830184610cf4565b92915050565b600060208284031215610d3457610d33610b5b565b5b6000610d4284828501610ba9565b91505092915050565b60008060408385031215610d6257610d61610b5b565b5b6000610d7085828601610ba9565b9250506020610d8185828601610ba9565b9150509250929050565b7f4e487b7100000000000000000000000000000000000000000000000000000000600052601160045260246000fd5b60008160011c9050919050565b6000808291508390505b6001851115610e1157808604811115610ded57610dec610d8b565b5b6001851615610dfc5780820291505b8081029050610e0a85610dba565b9450610dd1565b94509492505050565b600082610e2a5760019050610ee6565b81610e385760009050610ee6565b8160018114610e4e5760028114610e5857610e87565b6001915050610ee6565b60ff841115610e6a57610e69610d8b565b5b8360020a915084821115610e8157610e80610d8b565b5b50610ee6565b5060208310610133831016604e8410600b8410161715610ebc5782820a905083811115610eb757610eb6610d8b565b5b610ee6565b610ec98484846001610dc7565b92509050818404811115610ee057610edf610d8b565b5b81810290505b9392505050565b6000610ef882610bbe565b9150610f0383610bbe565b9250610f307fffffffffffffffffffffffffffffffffffffffffffffffffffffffffffffffff8484610e1a565b905092915050565b6000610f4382610bbe565b9150610f4e83610bbe565b9250817fffffffffffffffffffffffffffffffffffffffffffffffffffffffffffffffff0483118215151615610f8757610f86610d8b565b5b828202905092915050565b6000610f9d82610bbe565b9150610fa883610bbe565b925082821015610fbb57610fba610d8b565b5b828203905092915050565b6000610fd182610bbe565b9150610fdc83610bbe565b9250827fffffffffffffffffffffffffffffffffffffffffffffffffffffffffffffffff0382111561101157611010610d8b565b5b828201905092915050565b7f45524332303a20617070726f76652066726f6d20746865207a65726f2061646460008201527f7265737300000000000000000000000000000000000000000000000000000000602082015250565b6000611078602483610aab565b91506110838261101c565b604082019050919050565b600060208201905081810360008301526110a78161106b565b9050919050565b7f45524332303a20617070726f766520746f20746865207a65726f20616464726560008201527f7373000000000000000000000000000000000000000000000000000000000000602082015250565b600061110a602283610aab565b9150611115826110ae565b604082019050919050565b60006020820190508181036000830152611139816110fd565b9050919050565b7f45524332303a207472616e736665722066726f6d20746865207a65726f20616460008201527f6472657373000000000000000000000000000000000000000000000000000000602082015250565b600061119c602583610aab565b91506111a782611140565b604082019050919050565b600060208201905081810360008301526111cb8161118f565b9050919050565b7f45524332303a207472616e7366657220746f20746865207a65726f206164647260008201527f6573730000000000000000000000000000000000000000000000000000000000602082015250565b600061122e602383610aab565b9150611239826111d2565b604082019050919050565b6000602082019050818103600083015261125d81611221565b905091905056fea264697066735822122033b4266bce45c977ccbc82db963a286b2ab30361c768ac7db216f17ded2e70aa64736f6c634300080b0033",
  "immutableReferences": {},
  "source": "// SPDX-License-Identifier: MIT\r\npragma solidity >=0.8.11;\r\n\r\nimport './StandardToken.sol';\r\n\r\n/**\r\n * @title SimpleToken\r\n * @dev Very simple ERC20 Token example, where all tokens are pre-assigned to the creator.\r\n * Note they can later distribute these tokens as they wish using `transfer` and other\r\n * `StandardToken` functions.\r\n */\r\ncontract SimpleToken is StandardToken {\r\n  using SafeMath for uint256;\r\n\r\n  string public constant name = \"SimpleToken\"; // solium-disable-line uppercase\r\n  string public constant symbol = \"SIM\"; // solium-disable-line uppercase\r\n  uint8 public constant decimals = 18; // solium-disable-line uppercase\r\n\r\n  uint256 public constant INITIAL_SUPPLY = 10000 * (10 ** uint256(decimals));\r\n\r\n  constructor() public {\r\n    _totalSupply = INITIAL_SUPPLY;\r\n    _balances[msg.sender] = INITIAL_SUPPLY;\r\n    transfer(msg.sender, INITIAL_SUPPLY);\r\n  }\r\n}",
  "sourcePath": "C:\\Users\\Hades\\Documents\\blockchain_project\\hello-crypto\\contracts\\SimpleToken.sol",
  "compiler": {
    "name": "solc",
    "version": "0.8.11+commit.d7f03943.Emscripten.clang"
  },
  "schemaVersion": "3.4.5",
  "updatedAt": "2022-02-28T07:07:54.294Z",
  "networkType": "ethereum",
  "devdoc": {
    "details": "Very simple ERC20 Token example, where all tokens are pre-assigned to the creator. Note they can later distribute these tokens as they wish using `transfer` and other `StandardToken` functions.",
    "kind": "dev",
    "methods": {
      "allowance(address,address)": {
        "details": "Returns the remaining number of tokens that `spender` will be allowed to spend on behalf of `owner` through {transferFrom}. This is zero by default. This value changes when {approve} or {transferFrom} are called."
      },
      "balanceOf(address)": {
        "details": "Returns the amount of tokens owned by `account`."
      },
      "totalSupply()": {
        "details": "Returns the amount of tokens in existence."
      }
    },
    "title": "SimpleToken",
    "version": 1
  },
  "userdoc": {
    "kind": "user",
    "methods": {},
    "version": 1
  }
}